{
  "contractName": "SocialNetwork",
  "abi": [
    {
      "inputs": [],
      "stateMutability": "nonpayable",
      "type": "constructor"
    },
    {
      "anonymous": false,
      "inputs": [
        {
          "indexed": false,
          "internalType": "uint256",
          "name": "id",
          "type": "uint256"
        },
        {
          "indexed": false,
          "internalType": "string",
          "name": "content",
          "type": "string"
        },
        {
          "indexed": false,
          "internalType": "uint256",
          "name": "tipAmount",
          "type": "uint256"
        },
        {
          "indexed": false,
          "internalType": "address payable",
          "name": "author",
          "type": "address"
        }
      ],
      "name": "PostCreated",
      "type": "event"
    },
    {
      "anonymous": false,
      "inputs": [
        {
          "indexed": false,
          "internalType": "uint256",
          "name": "id",
          "type": "uint256"
        },
        {
          "indexed": false,
          "internalType": "string",
          "name": "content",
          "type": "string"
        },
        {
          "indexed": false,
          "internalType": "uint256",
          "name": "tipAmount",
          "type": "uint256"
        },
        {
          "indexed": false,
          "internalType": "address payable",
          "name": "author",
          "type": "address"
        }
      ],
      "name": "PostTipped",
      "type": "event"
    },
    {
      "inputs": [],
      "name": "name",
      "outputs": [
        {
          "internalType": "string",
          "name": "",
          "type": "string"
        }
      ],
      "stateMutability": "view",
      "type": "function"
    },
    {
      "inputs": [],
      "name": "postCount",
      "outputs": [
        {
          "internalType": "uint256",
          "name": "",
          "type": "uint256"
        }
      ],
      "stateMutability": "view",
      "type": "function"
    },
    {
      "inputs": [
        {
          "internalType": "uint256",
          "name": "",
          "type": "uint256"
        }
      ],
      "name": "posts",
      "outputs": [
        {
          "internalType": "uint256",
          "name": "id",
          "type": "uint256"
        },
        {
          "internalType": "string",
          "name": "content",
          "type": "string"
        },
        {
          "internalType": "uint256",
          "name": "tipAmount",
          "type": "uint256"
        },
        {
          "internalType": "address payable",
          "name": "author",
          "type": "address"
        }
      ],
      "stateMutability": "view",
      "type": "function"
    },
    {
      "inputs": [
        {
          "internalType": "uint256",
          "name": "_id",
          "type": "uint256"
        }
      ],
      "name": "tipPost",
      "outputs": [],
      "stateMutability": "payable",
      "type": "function"
    }
  ],
  "bytecode": "0x608060405260006001553480156200001657600080fd5b506040518060400160405280601f81526020017f536f6369616c204e6574776f726b205573696e6720426c6f636b636861696e00815250600090816200005d9190620002de565b50620003c5565b600081519050919050565b7f4e487b7100000000000000000000000000000000000000000000000000000000600052604160045260246000fd5b7f4e487b7100000000000000000000000000000000000000000000000000000000600052602260045260246000fd5b60006002820490506001821680620000e657607f821691505b602082108103620000fc57620000fb6200009e565b5b50919050565b60008190508160005260206000209050919050565b60006020601f8301049050919050565b600082821b905092915050565b600060088302620001667fffffffffffffffffffffffffffffffffffffffffffffffffffffffffffffffff8262000127565b62000172868362000127565b95508019841693508086168417925050509392505050565b6000819050919050565b6000819050919050565b6000620001bf620001b9620001b3846200018a565b62000194565b6200018a565b9050919050565b6000819050919050565b620001db836200019e565b620001f3620001ea82620001c6565b84845462000134565b825550505050565b600090565b6200020a620001fb565b62000217818484620001d0565b505050565b5b818110156200023f576200023360008262000200565b6001810190506200021d565b5050565b601f8211156200028e57620002588162000102565b620002638462000117565b8101602085101562000273578190505b6200028b620002828562000117565b8301826200021c565b50505b505050565b600082821c905092915050565b6000620002b36000198460080262000293565b1980831691505092915050565b6000620002ce8383620002a0565b9150826002028217905092915050565b620002e98262000064565b67ffffffffffffffff8111156200030557620003046200006f565b5b620003118254620000cd565b6200031e82828562000243565b600060209050601f83116001811462000356576000841562000341578287015190505b6200034d8582620002c0565b865550620003bd565b601f198416620003668662000102565b60005b82811015620003905784890151825560018201915060208501945060208101905062000369565b86831015620003b05784890151620003ac601f891682620002a0565b8355505b6001600288020188555050505b505050505050565b610a0880620003d56000396000f3fe60806040526004361061003f5760003560e01c806306fdde03146100445780630b1e7f831461006f57806317906c2e146100af57806374d3c1f8146100da575b600080fd5b34801561005057600080fd5b506100596100f6565b6040516100669190610521565b60405180910390f35b34801561007b57600080fd5b506100966004803603810190610091919061057e565b610184565b6040516100a694939291906105fb565b60405180910390f35b3480156100bb57600080fd5b506100c461025c565b6040516100d19190610647565b60405180910390f35b6100f460048036038101906100ef919061057e565b610262565b005b6000805461010390610691565b80601f016020809104026020016040519081016040528092919081815260200182805461012f90610691565b801561017c5780601f106101515761010080835404028352916020019161017c565b820191906000526020600020905b81548152906001019060200180831161015f57829003601f168201915b505050505081565b60026020528060005260406000206000915090508060000154908060010180546101ad90610691565b80601f01602080910402602001604051908101604052809291908181526020018280546101d990610691565b80156102265780601f106101fb57610100808354040283529160200191610226565b820191906000526020600020905b81548152906001019060200180831161020957829003601f168201915b5050505050908060020154908060030160009054906101000a900473ffffffffffffffffffffffffffffffffffffffff16905084565b60015481565b60008111801561027457506001548111155b61027d57600080fd5b600060026000838152602001908152602001600020604051806080016040529081600082015481526020016001820180546102b790610691565b80601f01602080910402602001604051908101604052809291908181526020018280546102e390610691565b80156103305780601f1061030557610100808354040283529160200191610330565b820191906000526020600020905b81548152906001019060200180831161031357829003601f168201915b50505050508152602001600282015481526020016003820160009054906101000a900473ffffffffffffffffffffffffffffffffffffffff1673ffffffffffffffffffffffffffffffffffffffff1673ffffffffffffffffffffffffffffffffffffffff168152505090506000816060015190503482604001516103b491906106f1565b82604001818152505081600260008581526020019081526020016000206000820151816000015560208201518160010190816103f09190610900565b506040820151816002015560608201518160030160006101000a81548173ffffffffffffffffffffffffffffffffffffffff021916908373ffffffffffffffffffffffffffffffffffffffff1602179055509050507f20988fe475351e75813672abada1dddb7ac67cbbeb81e61e1160b8329d8cdf1c600154836020015184604001518460405161048494939291906105fb565b60405180910390a1505050565b600081519050919050565b600082825260208201905092915050565b60005b838110156104cb5780820151818401526020810190506104b0565b60008484015250505050565b6000601f19601f8301169050919050565b60006104f382610491565b6104fd818561049c565b935061050d8185602086016104ad565b610516816104d7565b840191505092915050565b6000602082019050818103600083015261053b81846104e8565b905092915050565b600080fd5b6000819050919050565b61055b81610548565b811461056657600080fd5b50565b60008135905061057881610552565b92915050565b60006020828403121561059457610593610543565b5b60006105a284828501610569565b91505092915050565b6105b481610548565b82525050565b600073ffffffffffffffffffffffffffffffffffffffff82169050919050565b60006105e5826105ba565b9050919050565b6105f5816105da565b82525050565b600060808201905061061060008301876105ab565b818103602083015261062281866104e8565b905061063160408301856105ab565b61063e60608301846105ec565b95945050505050565b600060208201905061065c60008301846105ab565b92915050565b7f4e487b7100000000000000000000000000000000000000000000000000000000600052602260045260246000fd5b600060028204905060018216806106a957607f821691505b6020821081036106bc576106bb610662565b5b50919050565b7f4e487b7100000000000000000000000000000000000000000000000000000000600052601160045260246000fd5b60006106fc82610548565b915061070783610548565b925082820190508082111561071f5761071e6106c2565b5b92915050565b7f4e487b7100000000000000000000000000000000000000000000000000000000600052604160045260246000fd5b60008190508160005260206000209050919050565b60006020601f8301049050919050565b600082821b905092915050565b6000600883026107b67fffffffffffffffffffffffffffffffffffffffffffffffffffffffffffffffff82610779565b6107c08683610779565b95508019841693508086168417925050509392505050565b6000819050919050565b60006107fd6107f86107f384610548565b6107d8565b610548565b9050919050565b6000819050919050565b610817836107e2565b61082b61082382610804565b848454610786565b825550505050565b600090565b610840610833565b61084b81848461080e565b505050565b5b8181101561086f57610864600082610838565b600181019050610851565b5050565b601f8211156108b45761088581610754565b61088e84610769565b8101602085101561089d578190505b6108b16108a985610769565b830182610850565b50505b505050565b600082821c905092915050565b60006108d7600019846008026108b9565b1980831691505092915050565b60006108f083836108c6565b9150826002028217905092915050565b61090982610491565b67ffffffffffffffff81111561092257610921610725565b5b61092c8254610691565b610937828285610873565b600060209050601f83116001811461096a5760008415610958578287015190505b61096285826108e4565b8655506109ca565b601f19841661097886610754565b60005b828110156109a05784890151825560018201915060208501945060208101905061097b565b868310156109bd57848901516109b9601f8916826108c6565b8355505b6001600288020188555050505b50505050505056fea264697066735822122016e289e7faee344ba3e4344117678e14a7ed01c81e43cb05a193921ed9cbaeb764736f6c63430008100033",
  "immutableReferences": {},
  "source": "// SPDX-License-Identifier: MIT\npragma solidity ^0.8.16;\n\ncontract SocialNetwork {\n    string public name;\n    uint public postCount = 0;\n    mapping(uint => Post) public posts;\n    \n    struct Post {\n        uint id;\n        string content; \n        uint tipAmount;\n        address payable author;\n    }\n  \n  event PostCreated(\n      uint id,\n      string content,\n      uint tipAmount,\n      address payable author\n    );\n\n    event PostTipped(\n      uint id,\n      string content,\n      uint tipAmount,\n      address payable author\n    );\n  \n  constructor()  {\n    name = \"Social Network Using Blockchain\";\n  }\n\n\n\n\n  function tipPost(uint _id) public payable {\n      require(_id > 0 && _id <= postCount);\n      // Fetch the post\n      Post memory _post = posts[_id];\n      // Fetch the author\n      address payable _author = _post.author;\n      // Pay the author by sending them Ether\n  \n      // Increment the tip amount\n      _post.tipAmount = _post.tipAmount + msg.value;\n      // Update the post\n      posts[_id] = _post;\n      // trigger an event\n      emit PostTipped(postCount, _post.content, _post.tipAmount, _author);\n    } \n}",
  "sourcePath": "C:\\Users\\sayan\\Downloads\\Blockchain Social\\depp_social\\contracts\\SocialNetwork.sol",
  "compiler": {
    "name": "solc",
    "version": "0.8.16+commit.07a7930e.Emscripten.clang"
  },
  "schemaVersion": "3.4.9",
  "updatedAt": "2022-08-22T11:32:10.588Z",
  "devdoc": {
    "kind": "dev",
    "methods": {},
    "version": 1
  },
  "userdoc": {
    "kind": "user",
    "methods": {},
    "version": 1
  }
}